:040000004BEF00F0D2
:10000800FACF04F0FBCF05F0E9CF06F0EACF07F00E
:10001800E1CF08F0E2CF09F0D9CF0AF0DACF0BF040
:10002800F3CF0CF0F4CF0DF0F6CF0EF0F7CF0FF0C2
:10003800F8CF10F0F5CF11F0120E016E000E026E1F
:10004800010E5EEC01F00009D8B404D0125099EC0E
:1000580001F000D011C0F5FF10C0F8FF0FC0F7FF86
:100068000EC0F6FF0DC0F4FF0CC0F3FF0BC0DAFFA3
:100078000AC0D9FF09C0E2FF08C0E1FF07C0EAFFD4
:1000880006C0E9FF05C0FBFF04C0FAFF110089EFB5
:1000980001F01BAE41D0000E1D6E16D01D50136E20
:1000A800146A13BE1406000E166E010E156E75EC5A
:1000B80001F013501924D96E14501A20DA6EA0ECEE
:1000C80001F0DF6E1D2A00D01D50136E146A13BE96
:1000D8001406000E166E010E156E75EC01F0135025
:1000E8001924D96E14501A20DA6EDF50D8A4D6D746
:1000F8001D50136E146A13BE1406000E166E010E00
:10010800156E75EC01F013501924D96E14501A208D
:10011800DA6E000EDF6E1200000E1D6E16D01D5036
:10012800136E146A13BE1406000E166E010E156EB9
:1001380075EC01F013501924D96E14501A20DA6E98
:10014800A0EC01F0DF6E1D2A00D01D50800A1C6E45
:100158001B50800A1C5CD8B01200E1D712001200B4
:100168001BAE31D0000E1D6E16D01D50136E146AD2
:1001780013BE1406000E166E010E156E75EC01F016
:1001880013501924D96E14501A20DA6EDF5092ECED
:1001980001F01D2A00D01D50136E146A13BE1406F8
:1001A800000E166E010E156E75EC01F01350192431
:1001B800D96E14501A20DA6EDF50D8A4D6D7000EA4
:1001C80092EC01F01200000E1D6E16D01D50136E39
:1001D800146A13BE1406000E166E010E156E75EC29
:1001E80001F013501924D96E14501A20DA6EDF501A
:1001F80092EC01F01D2A00D01D50800A1C6E1B5085
:10020800800A1C5CD8B01200E1D712001200410E1F
:100218001E6EEE0EE82EFED71E2EFCD700D0000E66
:10022800146E810E136E0C0E3BEC01F020EE29F0DB
:1002380010EE1FF0090EDBCFE3FFE806FCE2AA0E82
:1002480092EC01F000D01F0E196E000E1A6E0A0E05
:100258001B6E4DEC00F01F0E196E000E1A6E0A0E82
:100268001B6EB4EC00F0EFD7FFD74BEF00F0196E20
:100278007F9619B404D0000E166E200E03D0000E1F
:10028800166E240E156E00D015C0ACFF900EAB6E26
:1002980019B604D0000E186E000E03D0000E186EAA
:1002A800080E176E00D017C0B8FF1450B06E13C0F8
:1002B800AFFF1200036E0350D8B40ED09EAA09D027
:1002C80001C0D9FF02C0DAFFAECFDFFF010E120076
:1002D80003D0000E120000D0000E9EBA010E1200CC
:1002E800120013501502F3CF17F0F4CF18F0135083
:1002F8001602F350182614501502F350182617C08A
:1003080013F018C014F01200120000EE29F0110EBC
:10031800EE6AE806FDE100010BEF01F0136E00D074
:100328009EA8FED713C0ADFF1200016E00D09EA894
:10033800FED701C0ADFF120000D09EAAFED7AE5076
:04034800120012008D
:020000040020DA
:08000000FFFFFFFFFFFFFFFF00
:020000040030CA
:0E000000FF221F1EFF8881FF03C003E00340A4
:00000001FF
